:100000000C9434000C9446000C9446000C94660149
:100010000C9446000C9446000C9446000C94460048
:100020000C9446000C9446000C9446000C94460038
:100030000C9446000C9446000C9446000C94460028
:100040000C9446000C9446000C9446000C94460018
:100050000C948F010C94A6010C9446000C9446005D
:100060000C9446000C94460011241FBECFEFD8E03C
:10007000DEBFCDBF11E0A0E0B1E001C01D92A23013
:10008000B107E1F70E9499010C9416020C9400004C
:10009000E8E6F0E0808181608083EBE6F0E080813B
:1000A000886080838081806180830895209A23986E
:1000B0002B9A24982C9A0895209A23982B9A249866
:1000C0002C9AE8E6F0E0808181608083EBE6F0E046
:1000D000808188608083808180618083089590E43E
:1000E00090937C009FE890937A0090917C00987F99
:1000F00090937C0090917C008770892B80937C008A
:1001000080917A00806480937A0080917A0084FFE5
:10011000FCCF0895EAE7F0E0808180618083209140
:10012000780030917900C9010895E0E8F0E080811D
:1001300083688083E1E8F0E080818B608083219A8E
:1001400008958093C4009093C500E2ECF0E08081B4
:1001500086648083E1ECF0E0808188648083089588
:10016000982F8091C00085FFFCCF9093C600089522
:100170009C0187E68093C4001092C5008091C20064
:1001800086648093C2008091C10088648093C1001E
:100190002130310561F12230310509F44CC02330A2
:1001A000310509F06CC08091C00085FFFCCF82E36F
:1001B0008093C6008091C00085FFFCCF89E38093C7
:1001C000C6008091C00085FFFCCF80E28093C6000E
:1001D0008091C00085FFFCCF83E48093C6008091AE
:1001E000C00085FFFCCF80E28093C6000895809117
:1001F000C00085FFFCCF82E38093C6008091C000E1
:1002000085FFFCCF80E38093C6008091C00085FF0E
:10021000FCCF80E28093C6008091C00085FFFCCFB8
:1002200083E48093C6008091C00085FFFCCF80E20C
:100230008093C60008958091C00085FFFCCF82E3C3
:100240008093C6008091C00085FFFCCF85E380933A
:10025000C6008091C00085FFFCCF80E28093C6007D
:100260008091C00085FFFCCF83E48093C60080911D
:10027000C00085FFFCCF80E28093C6000895243043
:10028000310519F58091C00085FFFCCF83E3809391
:10029000C6008091C00085FFFCCF83E38093C60039
:1002A0008091C00085FFFCCF80E28093C6008091E2
:1002B000C00085FFFCCF83E48093C6008091C0001E
:1002C00085FFFCCF80E28093C60008951F920F92B5
:1002D0000FB60F9211248F939F931B9902C01C9B02
:1002E00010C028981092010110920001109289000C
:1002F000109288009F918F910F900FBE0F901F90CA
:100300001895289A81E090E0909301018093000174
:100310009F918F910F900FBE0F901F9018951F9275
:100320000F920FB60F9211240F900FBE0F901F90D7
:10033000189578940E945C008091000190910101D1
:100340000197D1F780E00E946F00F6CF1F920F92C5
:100350000FB60F9211242F933F934F935F936F9398
:100360007F938F939F93AF93BF93EF93FF9380916E
:10037000000190910101019789F0FF91EF91BF91E8
:10038000AF919F918F917F916F915F914F913F912D
:100390002F910F900FBE0F901F90189580E00E9434
:1003A0006F000E9495000E948A009C01865C92402A
:1003B0008A539140C0F484E090E02AEC33E030931B
:1003C00089002093880020E030E040E951E0FA0104
:1003D0003197F1F72F5F3F4F67E0203D3607B9F7C0
:1003E0000E94B800CACFC9018E5F91408F3B910532
:1003F00028F483E090E02AE433E0E1CFC901825D94
:1004000090408352914028F482E090E02AE931E064
:10041000D6CFC9010197883C910528F481E090E08E
:100420002DEC30E0CCCF80E090E0C9CFF894FFCF46
:00000001FF
